:100000000C9446000C9465000C9465000C946500FB
:100010000C9465000C9465000C9465000C946500CC
:100020000C9465000C9465000C9465000C946500BC
:100030000C9465000C940C010C9465000C94650004
:100040000C9465000C9465000C9465000C9465009C
:100050000C9465000C9465000C9465000C9465008C
:100060000C9465000C9465000C9465000C9465007C
:100070000C9465000C9465000C9465000C9465006C
:100080000C9465000C9465000C94650011241FBE4F
:10009000CFEFD0E4DEBFCDBF11E0A0E0B1E0EEE8ED
:1000A000F5E000E00BBF02C007900D92A231B1074E
:1000B000D9F721E0A2E1B1E001C01D92A332B2075D
:1000C000E1F70E947A020C94C5020C940000CF93D1
:1000D000DF9300D01F92CDB7DEB789837B836A831D
:1000E00089818A3031F48A819B81BC018DE00E9434
:1000F000670080EC90E0FC018081882F90E08072A6
:100100009927892BB1F386EC90E02981FC012083AB
:1001100080E090E00F900F900F90DF91CF910895C5
:10012000CF93DF9300D000D0CDB7DEB769837A8359
:100130008B839C8389819A81AB81BC8180930E01E2
:1001400090930F01A0931001B093110180910E01C3
:1001500090910F01A0911001B091110180931301B2
:1001600090931401A0931501B093160100000F9015
:100170000F900F900F90DF91CF910895CF93DF9361
:10018000CDB7DEB781E890E02BE0FC01208388E862
:1001900090E02DE730E0FC01318320838FE690E092
:1001A00022E0FC01208384E890E0FC0111821082AF
:1001B00080910E0190910F01A0911001B091110159
:1001C0008093130190931401A0931501B09316012D
:1001D0008FE590E02FE530E0F90120812068FC01F7
:1001E00020830000DF91CF910895CF93DF93CDB7A7
:1001F000DEB781E890E0FC0110820000DF91CF9132
:100200000895CF93DF93CDB7DEB781E080931201DD
:100210000000DF91CF9108951F920F9200905F0030
:100220000F92112400905B000F922F933F934F93F6
:100230005F936F937F938F939F93AF93BF93EF934E
:10024000FF93CF93DF93CDB7DEB7809113019091E9
:100250001401A0911501B09116010197A109B109EE
:100260008093130190931401A0931501B09316018C
:100270008091130190911401A0911501B091160184
:10028000892B8A2B8B2B91F40E94010180910E0106
:1002900090910F01A0911001B09111018093130171
:1002A00090931401A0931501B09316010000DF9103
:1002B000CF91FF91EF91BF91AF919F918F917F91DE
:1002C0006F915F914F913F912F910F9000925B0042
:1002D0000F9000925F000F901F901895CF93DF93BF
:1002E000CDB7DEB780911F0190912001813091053B
:1002F00089F08130910538F08230910551F10397F2
:1003000009F446C064C081E090E09093200180939E
:100310001F0162C08091190190911A0186399105DF
:1003200068F481E0809317018091190190911A017E
:10033000019690931A01809319014EC010921A01F0
:100340001092190182E090E09093200180931F01A8
:1003500043C08091190190911A018639910568F482
:1003600082E0809317018091190190911A01019602
:1003700090931A01809319012FC010921A011092C4
:10038000190183E090E09093200180931F0124C025
:100390008091190190911A018639910568F484E0E1
:1003A000809317018091190190911A010196909301
:1003B0001A018093190110C010921A0110921901AC
:1003C00081E090E09093200180931F0105C010927E
:1003D000200110921F0100000000DF91CF910895CD
:1003E000CF93DF93CDB7DEB78091210190912201A9
:1003F0008130910569F08130910518F0029739F14B
:1004000044C081E090E0909322018093210142C09A
:1004100080911B0190911C01843F914068F488E019
:100420008093180180911B0190911C01019690937B
:100430001C0180931B012EC010921C0110921B0105
:1004400082E090E0909322018093210123C080916B
:100450001B0190911C01843F914060F4109218019F
:1004600080911B0190911C01019690931C01809337
:100470001B0110C010921C0110921B0181E090E042
:10048000909322018093210105C0109222011092C5
:10049000210100000000DF91CF910895CF93DF93F9
:1004A000CDB7DEB780911D0190911E01009719F024
:1004B000019741F016C081E090E090931E01809377
:1004C0001D0114C085E290E025E230E0F9013081A1
:1004D0004091170120911801242B230FFC01208348
:1004E00005C010921E0110921D0100000000DF9156
:1004F000CF910895CF93DF93CDB7DEB784E290E03C
:100500002FEFFC01208385E290E0FC01108281E264
:1005100090E0FC01108282E290E02FEFFC0120834A
:1005200062E070E080E090E00E9490000E94BE00D7
:100530001092200110921F011092220110922101AD
:1005400010921E0110921D0100008091120188235B
:10055000E1F30E946E010E94F0010E944E0280E2CF
:1005600090E0FC018081882F90E084709927892B8E
:1005700049F485E290E025E230E0F9012081206134
:0E058000FC01208310921201DFCFF894FFCF10
:10058E0000000002000000006700000000000100F3
:02059E0000005B
:00000001FF
